:1000000065C0000083C0000081C000007FC0000008
:100010007DC000007BC0000079C0000077C00000F8
:1000200075C0000073C0000071C000006FC0000008
:100030006DC000006BC0000069C0000067C0000018
:1000400065C0000063C0000061C000005FC0000028
:100050005DC000005BC0000059C0000057C0000038
:1000600055C000000C94BA0A51C000004FC00000F7
:100070004DC000004BC0000049C0000047C0000058
:1000800045C0000043C0000041C000003FC0000068
:100090003DC000003BC0000039C0000037C0000078
:1000A00035C0000033C0000031C000002FC0000088
:1000B0002DC000002BC0000029C0000027C0000098
:1000C00025C0000023C0000021C0000011241FBE75
:1000D000CFEFD1E2DEBFCDBF00E00CBF13E0A0E068
:1000E000B2E0E0E6F6E100E00BBF02C007900D923F
:1000F000AA30B107D9F715E0AAE0B3E001C01D921C
:10010000AC38B107E1F71DD70C942E0B79CFEF92E5
:10011000FF920F931F937B018C0120E030E040E0C1
:100120005FE487D388237CF0C801B70120E030E08A
:1001300040E05FE460D1D3D39B01AC01205030405C
:100140004040504805C0C801B701C9D39B01AC016C
:10015000B901CA011F910F91FF90EF900895A0E09F
:10016000B0E0E5EBF0E00C94F70ADC012B01FA01BA
:100170009C91923008F439C1EB018881823008F4F7
:1001800033C1943069F4843009F02FC111969C91E9
:1001900011978981981709F428C1A0E0B2E025C120
:1001A000843009F421C18230A9F4923009F01DC1D4
:1001B0009A01AD0188E0EA010990AE01E9010992D6
:1001C0009E018150C1F7E201898111969C9189239A
:1001D000818308C1923009F407C112962D903C909A
:1001E0001397EB018A819B811496AD90BD90CD90C1
:1001F000DC901797EC80FD800E811F819101281BF8
:10020000390BB90137FF04C066277727621B730BD0
:10021000603271050CF061C0121613066CF53701DF
:100220004801062E04C096948794779467940A94A4
:10023000D2F721E030E040E050E004C0220F331F4D
:10024000441F551F6A95D2F721503040404050401E
:100250002E213F2140235123211531054105510510
:1002600021F021E030E040E050E079018A01E62809
:10027000F728082919293CC0232BD1F1260E371E57
:1002800035014601062E04C09694879477946794AE
:100290000A94D2F721E030E040E050E004C0220FA1
:1002A000331F441F551F6A95D2F7215030404040FC
:1002B00050402A213B214C215D212115310541056A
:1002C000510521F021E030E040E050E059016A01A1
:1002D000A628B728C828D9280BC0821593052CF06A
:1002E0001C01AA24BB24650103C0EE24FF2487015E
:1002F00011969C91D20111968C91981709F445C0E2
:10030000992339F0A80197012A193B094C095D0985
:1003100006C0A60195012E193F09400B510B57FD50
:1003200008C0118233822282248335834683578317
:100330001DC081E081833382228288279927DC01D6
:10034000821B930BA40BB50B84839583A683B78381
:100350000DC0220F331F441F551F2483358346834E
:10036000578382819381019793838283248135818E
:1003700046815781DA01C9010197A109B1098F5F4F
:100380009F4FAF4FBF4328F30BC09183338222822C
:10039000EA0CFB1C0C1D1D1DE482F58206831783ED
:1003A00083E08083248135814681578157FF1AC0BD
:1003B000C901AA2797FDA095BA2F81709070A070EF
:1003C000B0705695479537952795822B932BA42B84
:1003D000B52B84839583A683B7838281938101960D
:1003E00093838283DF0101C0D201CD01CDB7DEB797
:1003F000E2E10C94130BA0E2B0E0E1E0F2E00C9437
:10040000030B69837A838B839C832D833E834F8385
:100410005887E9E0EE2EF12CEC0EFD1ECE01019680
:10042000B70147D48E010F5E1F4FCE010596B8016C
:1004300040D48A8991E089278A8BC701B801AE012F
:10044000475E5F4F8CDE60D3A096E6E00C941F0BF6
:10045000A0E2B0E0EEE2F2E00C94030B69837A8351
:100460008B839C832D833E834F835887F9E0EF2E47
:10047000F12CEC0EFD1ECE010196B7011AD48E01AF
:100480000F5E1F4FCE010596B80113D4C701B80106
:10049000AE01475E5F4F63DE37D3A096E6E00C9473
:1004A0001F0BA0E2B0E0E7E5F2E00C94F70A6983E5
:1004B0007A838B839C832D833E834F835887CE0121
:1004C0000196BE01675F7F4FF4D3CE010596BE0152
:1004D0006F5E7F4FEED39985923088F089898230A4
:1004E000C8F0943019F4823051F404C0843029F4F7
:1004F000923081F480E092E0C6C0923049F420E06E
:100500009A858A89981321E02A87CE010996BBC073
:10051000823049F420E09A858A89981321E02A8B59
:10052000CE014196B0C02D843E844F8458886D889A
:100530007E888F88988CEE24FF248701AA24BB2410
:10054000650140E050E060E070E0E0E0F0E0C10113
:1005500081709070892BE9F0E60CF71C081D191DBD
:100560009A01AB012A0D3B1D4C1D5D1D80E090E002
:10057000A0E0B0E0E614F7040805190520F481E0D6
:1005800090E0A0E0B0E0BA01A901480F591F6A1F2E
:100590007B1FAA0CBB1CCC1CDD1C97FE08C081E095
:1005A00090E0A0E0B0E0A82AB92ACA2ADB2A319656
:1005B000E032F10549F0660C771C881C991C5694B2
:1005C000479437942794C3CFFA85EA892B893C89CD
:1005D0008B859C85280F391F2E5F3F4F17C0CA019E
:1005E00081709070892B61F016950795F794E794C8
:1005F00080E090E0A0E0B0E8E82AF92A0A2B1B2B63
:1006000076956795579547952F5F3F4F77FDE7CFD5
:100610000CC0440F551F661F771F17FD4160EE0C7D
:10062000FF1C001F111F21503040403090E059073F
:1006300090E0690790E4790760F32B8F3C8FDB0132
:10064000CA018F779070A070B07080349105A105B9
:10065000B10561F447FD0AC0E114F104010511057B
:1006600029F0405C5F4F6F4F7F4F40781A8EFE1726
:1006700011F081E08A8F4D8F5E8F6F8F78A383E0BA
:10068000898FCE01499640D2A096E2E1CCC7A8E17D
:10069000B0E0ECE4F3E0B3C769837A838B839C8397
:1006A0002D833E834F835887B9E0EB2EF12CEC0E5F
:1006B000FD1ECE010196B701FCD28E010F5E1F4FC9
:1006C000CE010596B801F5D22985223008F47EC006
:1006D0003989323010F4B8017CC08A859A8989271B
:1006E0008A87243011F0223031F4231709F06EC0CC
:1006F00060E072E06EC0343039F41D861E861F86BD
:10070000188A1C861B8604C0323021F484E0898755
:10071000B7015FC02B853C858B899C89281B390BD1
:100720003C872B87ED84FE840F851889AD88BE88B1
:10073000CF88D88CEA14FB040C051D0540F4EE0CA0
:10074000FF1C001F111F215030403C872B8720E0E9
:1007500030E040E050E080E090E0A0E0B0E460E015
:1007600070E0EA14FB040C051D0540F0282B392B22
:100770004A2B5B2BEA18FB080C091D09B695A795B7
:1007800097958795EE0CFF1C001F111F6F5F7F4F21
:100790006F31710531F7DA01C9018F779070A07060
:1007A000B07080349105A105B10561F427FD0AC040
:1007B000E114F1040105110529F0205C3F4F4F4F72
:1007C0005F4F20782D873E874F87588BBE01675F2C
:1007D0007F4FCB0199D16896EAE02DC7A8E1B0E040
:1007E000E3EFF3E010C769837A838B839C832D83C7
:1007F0003E834F83588789E0E82EF12CEC0EFD1ED6
:10080000CE010196B70155D28E010F5E1F4FCE016A
:100810000596B8014ED28985823038F089898230B8
:1008200020F0C701B801BDD201C08FEF6896E6E0A5
:1008300006C7A8E1B0E0EEE1F4E0E5C669837A839B
:100840008B839C832D833E834F83588789E0E82EDA
:10085000F12CEC0EFD1ECE010196B7012AD28E01BD
:100860000F5E1F4FCE010596B80123D289858230D5
:1008700038F08989823020F0C701B80192D201C0D6
:100880008FEF6896E6E0DBC6A8E1B0E0E9E4F4E0CB
:10089000BAC669837A838B839C832D833E834F837F
:1008A000588789E0E82EF12CEC0EFD1ECE01019652
:1008B000B701FFD18E010F5E1F4FCE010596B80123
:1008C000F8D18985823038F08989823020F0C701DB
:1008D000B80167D201C081E06896E6E0B0C6ACE03E
:1008E000B0E0E4E7F4E093C669837A838B839C836A
:1008F000CE010196BE016B5F7F4FDBD18D818230CF
:1009000061F1823050F1843021F48E81882351F1DD
:100910002EC02F81388537FD20C06E812F313105E3
:100920001CF06623F9F023C08EE190E0821B930B4C
:1009300029853A854B855C8504C056954795379542
:1009400027958A95D2F76623B1F05095409530955A
:1009500021953F4F4F4F5F4F0EC020E030E040E009
:1009600050E009C02FEF3FEF4FEF5FE704C020E0FA
:1009700030E040E050E8B901CA012C96E2E063C6DD
:10098000A8E0B0E0E5ECF4E03AC67B018C0161152B
:1009900071058105910519F482E089835FC083E0C8
:1009A00089838EE1C82ED12CDC82CB82ED82FE823F
:1009B0000F831887C801B70158D0FC013197F7FFA2
:1009C0003BC0222733272E1B3F0B57016801022E05
:1009D00004C0D694C794B794A7940A94D2F740E081
:1009E00050E060E070E081E090E0A0E0B0E004C0A2
:1009F000880F991FAA1FBB1F2A95D2F70197A1093B
:100A0000B1098E219F21A023B1230097A105B10533
:100A100021F041E050E060E070E04A295B296C2958
:100A20007D294D835E836F8378878EE190E08E1BF6
:100A30009F0B9C838B8312C0309781F00E2E04C0D5
:100A4000EE0CFF1C001F111F0A94D2F7ED82FE82EC
:100A50000F831887CE1ADF0ADC82CB821A82CE017E
:100A6000019652D02896EAE0E6C5EF92FF920F93E6
:100A70001F937B018C0180E0E81680E0F80681E09E
:100A8000080780E0180788F48FEFE816F1040105E5
:100A9000110531F028F088E090E0A0E0B0E017C048
:100AA00080E090E0A0E0B0E012C080E0E81680E0D6
:100AB000F80680E0080781E0180728F088E190E058
:100AC000A0E0B0E004C080E190E0A0E0B0E020E26F
:100AD00030E040E050E0281B390B4A0B5B0B04C0B0
:100AE00016950795F794E7948A95D2F7F701E85F92
:100AF000FD4F8081281B310941095109C9011F910E
:100B00000F91FF90EF900895DF92EF92FF920F9375
:100B10001F93FC01E480F58006811781D1808081DC
:100B2000823048F480E090E0A0E1B0E0E82AF92AC1
:100B30000A2B1B2BA5C0843009F49FC0823021F4FE
:100B4000EE24FF24870105C0E114F104010511051D
:100B500019F4E0E0F0E096C0628173819FEF6238A3
:100B600079070CF05BC022E83FEF261B370B2A31D8
:100B700031052CF020E030E040E050E02AC0B80120
:100B8000A701022E04C076956795579547950A945C
:100B9000D2F781E090E0A0E0B0E004C0880F991F98
:100BA000AA1FBB1F2A95D2F70197A109B1098E216F
:100BB0009F21A023B1230097A105B10521F081E079
:100BC00090E0A0E0B0E09A01AB01282B392B4A2B32
:100BD0005B2BDA01C9018F779070A070B070803400
:100BE0009105A105B10539F427FF09C0205C3F4FED
:100BF0004F4F5F4F04C0215C3F4F4F4F5F4FE0E0CE
:100C0000F0E02030A0E03A07A0E04A07A0E45A074D
:100C100010F0E1E0F0E079018A0127C06038710549
:100C200064F5FB01E158FF4FD801C7018F77907041
:100C3000A070B07080349105A105B10539F4E7FECC
:100C40000DC080E490E0A0E0B0E004C08FE390E04D
:100C5000A0E0B0E0E80EF91E0A1F1B1F17FF05C039
:100C600016950795F794E794319687E016950795C2
:100C7000F794E7948A95D1F705C0EE24FF24870105
:100C8000EFEFF0E06E2F679566276795902F9F77BF
:100C9000D794DD24D7948E2F8695492F462B582F35
:100CA0005D29B701CA011F910F91FF90EF90DF906E
:100CB0000895FC01DB01408151812281622F6F7711
:100CC00070E0221F2227221F9381892F880F822BF9
:100CD000282F30E0991F9927991F11969C931197FF
:100CE00021153105A9F5411551056105710511F46D
:100CF00082E037C082E89FEF13969C938E93129701
:100D00009A01AB0167E0220F331F441F551F6A95FC
:100D1000D1F783E08C930DC0220F331F441F551F62
:100D200012968D919C911397019713969C938E9395
:100D30001297203080E0380780E0480780E45807A9
:100D400058F314962D933D934D935C931797089504
:100D50002F3F310579F4411551056105710519F4ED
:100D600084E08C93089564FF03C081E08C9312C0EB
:100D70001C9210C02F57304013963C932E9312971D
:100D800083E08C9387E0440F551F661F771F8A9579
:100D9000D1F7706414964D935D936D937C93179780
:100DA00008951F93DC01FB019C91923008F447C029
:100DB0008081823008F443C0943051F411961C9124
:100DC000843099F58181682F70E0611B71093FC003
:100DD000843021F0923031F48230B9F1818188235E
:100DE00089F12DC011961C9111978230F1F081810B
:100DF0001817D9F412962D913C9113978281938103
:100E00008217930794F028173907BCF014968D9138
:100E10009D910D90BC91A02D2481358146815781F3
:100E2000281739074A075B0718F4112341F00AC055
:100E300082179307A407B50740F4112319F061E066
:100E400070E005C06FEF7FEF02C060E070E0CB01A3
:100E50001F910895AB016EE106C20F931F938C01A1
:100E6000FC0180816EE116D2F80196838583808132
:100E700064E210D2F80194838383808166E20AD20F
:100E8000F801928381831F910F910895BC018D5DBC
:100E900095408755924040F46453784008F043C031
:100EA0006DEC72E0CB01089525E06D3D7207F0F026
:100EB0006453784080E090E063DD21E73DE34AE55C
:100EC00050E4EFDA24D9DC01CB01FC016AE070E0E8
:100ED0007AD39C018530910508F03A96CF01821BA8
:100EE000930B6AE070E06FD3CB01089580E090E04F
:100EF00047DD21E73DE34AE550E4D3DA08D9DC01D8
:100F0000CB01FC016AE070E05ED39C018530910565
:100F100070F4CF01821B930B6AE070E054D36353EB
:100F20007F4FCB01089560E070E0CB0108953A96C1
:100F3000CF01821B930B6AE070E045D363537F4F70
:100F4000D3CF1F93CF93DF938FE787B98EE788B90D
:100F500080E78AB981E18BB98CE08DB980EF8EB9D9
:100F6000C6EFD4E011E01883CE0177DF27961F5F2C
:100F70001531C9F781E060E072E06CDF82E060E08B
:100F800072E068DF83E060E072E064DF84E060E0EC
:100F900072E060DF85E060E072E05CDF86E060E0E8
:100FA00072E058DF8BE795E071DFBC0187E052DF2C
:100FB00087EF91E06BDFBC0188E04CDF87EF91E0C9
:100FC00065DFBC0189E046DF81E195E05FDFBC01C0
:100FD0008AE040DF8BE060E072E03CDF8CE060E0C4
:100FE00072E038DF8FE790E8649903C04498649B0F
:100FF000FDCF659902C04698F7CF669902C0419827
:10100000F3CF679902C04398EFCF489902C098B9CF
:10101000EBCF88B9E9CF0F931F93CF93DF938091E4
:10102000F2039091F303892B09F4AEC080910C0375
:101030008E3F09F4A2C080910803882329F41092FE
:10104000F10386E08093F0038091F10390E06091DA
:10105000F00370E0681B790B86559C4F60D290912D
:10106000F103980F9093F1038091F003981718F40F
:1010700069D1019771F07091F103472F50E0DA01C7
:1010800011978A010250104060E0ED01C655DC4F17
:1010900017C08091F103882309F06DC086E06EC00F
:1010A000F901E655FC4F80818F3F19F481818F3F14
:1010B00061F02017310719F488818F3F31F06F5F9D
:1010C000262F30E02A173B075CF36623A1F090E05F
:1010D000421B530B08C0E655FC4FDF01A20FB31FA4
:1010E0008C9180839F5FE92FF0E0E417F5079CF374
:1010F000761B7093F1032091F1038091F003281780
:1011000028F190910C038091AC039817A1F56091A0
:10111000AD036C5F6093F003261788F4822F90E094
:1011200070E0681B790B86559C4FF9D19091F103C3
:10113000980F9093F1038091F003981738F0809105
:10114000AD03A82FB0E020E090E009C085E08093D7
:1011500008031AC0E655FC4F8281980F2F5FE22FDB
:10116000F0E0AE17BF07B4F7A655BC4F90951396A5
:101170008C91891711F087E001C081E0809308030A
:101180001092F3031092F203DF91CF911F910F9110
:1011900008951F938091F2039091F303019709F44E
:1011A00055C081E090E09093F3038093F203809127
:1011B0000D03893940F490910E03892F81508630B8
:1011C00020F0933811F084E02CC08FEF80930A0355
:1011D00080930B0380910D03A82FB0E020E090E0F6
:1011E00005C0E65FFC4F8281980F2F5FE22FF0E091
:1011F000AE17BF07B4F7A65FBC4F909513969C93AC
:10120000809108038650823008F462D010910D035B
:101210001C5F8AE093E0612F70E05FD0181741F007
:1012200082E0809308031092F3031092F2030EC041
:1012300080910E03823029F48091100390E006968D
:1012400002C086E090E06DD0109208031F910895CF
:10125000A0DF80910803882329F4DDDE8091080354
:101260008530D9F30895282F8091F2039091F303EC
:10127000892B79F420930C0383E080930E03609311
:101280000F03409310035093110385E080930D03E7
:10129000DFCFFFCF282F8091F2039091F303892BAA
:1012A000B1F420930C0382E080930E0360930F034C
:1012B0008093100384E080930D03CADF3091B00364
:1012C00020E08091AF03280F311DC9010895FFCFA1
:1012D0008091F5048093F4040895AC01F894739818
:1012E000729A20E030E011C08091C00085FFFCCFF1
:1012F0008091C00080648093C000FA01E20FF31F68
:1013000080818093C6002F5F3F4F2617370764F315
:101310008091C00086FFFCCF7298739A7894C901BF
:10132000089510928B0510928A05209182053091C4
:101330008305265F3F4F280F391F3093890520937F
:1013400088050895AF92BF92CF92DF92EF92FF92FD
:101350000F931F9380918A0590918B05019690932E
:101360008B0580938A0520918A0530918B058091A9
:101370008805909189058217930718F421E030E0E1
:101380006CC0A0908405B0908505C0908605D09073
:101390008705C601B5012BEA3AEA4AEA5EE381D83D
:1013A0007B018C0120E030E040E85FE36DDA8823C8
:1013B00014F461E04EC0C801B70120E030E04FE70F
:1013C00053E40CDA18160CF040C0C601B50120E059
:1013D00030E04AE754E45BD95B016C0120E030E087
:1013E0004AE753E45ED87B018C0120E030E040E81E
:1013F0005FE34ADA88231CF461E070E022C0C80190
:10140000B70120E03FEF4FE757E4E8D91816ACF4F6
:10141000C601B50120E030E040E251E442D80E942C
:10142000870089E190E005C0FC013197F1F7615038
:10143000704061157105C1F70EC0C801B7010E9467
:101440008700CB010197F1F706C0C801B7010E94E0
:1014500087006A95F1F720E030E0C9011F910F91F4
:10146000FF90EF90DF90CF90BF90AF900895909154
:10147000F4048091F504981719F420E030E017C0C7
:101480009091F4048091F504981738F48091F50454
:101490009091F404282F30E008C08091F5049091D9
:1014A000F404282F30E020503F4F291B3109C90197
:1014B00008951F93182FDBDF8F3F910591F0E09186
:1014C000F504F0E0EC50FC4F10838091F5048F3F61
:1014D00019F41092F50405C08091F5048F5F809394
:1014E000F5041F9108959091F4048091F5049817E4
:1014F00011F4EFEF12C0E091F404F0E0EC50FC4F77
:10150000E0818091F4048F3F19F41092F40405C037
:101510008091F4048F5F8093F4048E2F0895EF92EE
:10152000FF920F931F93CF93DF937C01EB01909178
:10153000F4048091F504981719F400E010E012C04B
:1015400096DF8C01C817D9070CF48E01C0E0D0E0FB
:1015500006C0C9DFF701EC0FFD1F80832196C0177D
:10156000D107BCF3C801DF91CF911F910F91FF907C
:10157000EF9008951F920F920FB60F920BB60F9235
:1015800011242F933F934F935F936F937F938F9388
:101590009F93AF93BF93EF93FF938091C60089DF32
:1015A000FF91EF91BF91AF919F918F917F916F913B
:1015B0005F914F913F912F910F900BBE0F900FBEF7
:1015C0000F901F901895AA1BBB1B51E107C0AA1FC3
:1015D000BB1FA617B70710F0A61BB70B881F991FD4
:1015E0005A95A9F780959095BC01CD0108952F9249
:1015F0003F924F925F926F927F928F929F92AF92A3
:10160000BF92CF92DF92EF92FF920F931F93CF93EF
:10161000DF93CDB7DEB7CA1BDB0B0FB6F894DEBF86
:101620000FBECDBF19942A88398848885F846E849C
:101630007D848C849B84AA84B984C884DF80EE80F6
:10164000FD800C811B81AA81B981CE0FD11D0FB6FF
:10165000F894DEBF0FBECDBFED010895F894FFCF23
:101660000000000000000000000102020303030369
:101670000404040404040404050505050505050522
:101680000505050505050505060606060606060602
:1016900006060606060606060606060606060606EA
:1016A00006060606060606060707070707070707D2
:1016B00007070707070707070707070707070707BA
:1016C00007070707070707070707070707070707AA
:1016D000070707070707070707070707070707079A
:1016E0000707070707070707080808080808080882
:1016F000080808080808080808080808080808086A
:101700000808080808080808080808080808080859
:101710000808080808080808080808080808080849
:101720000808080808080808080808080808080839
:101730000808080808080808080808080808080829
:101740000808080808080808080808080808080819
:101750000808080808080808080808080808080809
:0A176000080808080808080801003E
:00000001FF
